{
  "_format": "hh-sol-artifact-1",
  "contractName": "MenshenZK",
  "sourceName": "contracts/Greeter.sol",
  "abi": [
    {
      "inputs": [
        {
          "internalType": "address",
          "name": "semaphoreAddress",
          "type": "address"
        },
        {
          "internalType": "uint256",
          "name": "_groupId",
          "type": "uint256"
        }
      ],
      "stateMutability": "nonpayable",
      "type": "constructor"
    },
    {
      "anonymous": false,
      "inputs": [
        {
          "indexed": false,
          "internalType": "bytes32",
          "name": "greeting",
          "type": "bytes32"
        }
      ],
      "name": "NewGreeting",
      "type": "event"
    },
    {
      "anonymous": false,
      "inputs": [
        {
          "indexed": false,
          "internalType": "uint256",
          "name": "identityCommitment",
          "type": "uint256"
        },
        {
          "indexed": false,
          "internalType": "bytes32",
          "name": "username",
          "type": "bytes32"
        }
      ],
      "name": "NewUser",
      "type": "event"
    },
    {
      "anonymous": false,
      "inputs": [
        {
          "indexed": true,
          "internalType": "address",
          "name": "previousOwner",
          "type": "address"
        },
        {
          "indexed": true,
          "internalType": "address",
          "name": "newOwner",
          "type": "address"
        }
      ],
      "name": "OwnershipTransferred",
      "type": "event"
    },
    {
      "inputs": [
        {
          "internalType": "bytes32",
          "name": "greeting",
          "type": "bytes32"
        },
        {
          "internalType": "uint256",
          "name": "merkleTreeRoot",
          "type": "uint256"
        },
        {
          "internalType": "uint256",
          "name": "nullifierHash",
          "type": "uint256"
        },
        {
          "internalType": "uint256[8]",
          "name": "proof",
          "type": "uint256[8]"
        }
      ],
      "name": "greet",
      "outputs": [],
      "stateMutability": "nonpayable",
      "type": "function"
    },
    {
      "inputs": [],
      "name": "groupId",
      "outputs": [
        {
          "internalType": "uint256",
          "name": "",
          "type": "uint256"
        }
      ],
      "stateMutability": "view",
      "type": "function"
    },
    {
      "inputs": [
        {
          "internalType": "uint256",
          "name": "identityCommitment",
          "type": "uint256"
        },
        {
          "internalType": "bytes32",
          "name": "username",
          "type": "bytes32"
        }
      ],
      "name": "joinGroup",
      "outputs": [],
      "stateMutability": "nonpayable",
      "type": "function"
    },
    {
      "inputs": [],
      "name": "owner",
      "outputs": [
        {
          "internalType": "address",
          "name": "",
          "type": "address"
        }
      ],
      "stateMutability": "view",
      "type": "function"
    },
    {
      "inputs": [],
      "name": "renounceOwnership",
      "outputs": [],
      "stateMutability": "nonpayable",
      "type": "function"
    },
    {
      "inputs": [],
      "name": "semaphore",
      "outputs": [
        {
          "internalType": "contract ISemaphore",
          "name": "",
          "type": "address"
        }
      ],
      "stateMutability": "view",
      "type": "function"
    },
    {
      "inputs": [
        {
          "internalType": "address",
          "name": "newOwner",
          "type": "address"
        }
      ],
      "name": "transferOwnership",
      "outputs": [],
      "stateMutability": "nonpayable",
      "type": "function"
    },
    {
      "inputs": [
        {
          "internalType": "uint256",
          "name": "",
          "type": "uint256"
        }
      ],
      "name": "users",
      "outputs": [
        {
          "internalType": "bytes32",
          "name": "",
          "type": "bytes32"
        }
      ],
      "stateMutability": "view",
      "type": "function"
    }
  ],
  "bytecode": "0x60806040523480156200001157600080fd5b5060405162000edf38038062000edf83398181016040528101906200003791906200023c565b620000576200004b6200014260201b60201c565b6200014a60201b60201c565b81600160006101000a81548173ffffffffffffffffffffffffffffffffffffffff021916908373ffffffffffffffffffffffffffffffffffffffff16021790555080600281905550600160009054906101000a900473ffffffffffffffffffffffffffffffffffffffff1673ffffffffffffffffffffffffffffffffffffffff1663059f1bb560025460146000306040518563ffffffff1660e01b8152600401620001069493929190620002c1565b600060405180830381600087803b1580156200012157600080fd5b505af115801562000136573d6000803e3d6000fd5b505050505050620003a8565b600033905090565b60008060009054906101000a900473ffffffffffffffffffffffffffffffffffffffff169050816000806101000a81548173ffffffffffffffffffffffffffffffffffffffff021916908373ffffffffffffffffffffffffffffffffffffffff1602179055508173ffffffffffffffffffffffffffffffffffffffff168173ffffffffffffffffffffffffffffffffffffffff167f8be0079c531659141344cd1fd0a4f28419497f9722a3daafe3b4186f6b6457e060405160405180910390a35050565b6000815190506200021f8162000374565b92915050565b60008151905062000236816200038e565b92915050565b600080604083850312156200025057600080fd5b600062000260858286016200020e565b9250506020620002738582860162000225565b9150509250929050565b62000288816200030e565b82525050565b62000299816200034c565b82525050565b620002aa8162000360565b82525050565b620002bb8162000342565b82525050565b6000608082019050620002d86000830187620002b0565b620002e760208301866200029f565b620002f660408301856200028e565b6200030560608301846200027d565b95945050505050565b60006200031b8262000322565b9050919050565b600073ffffffffffffffffffffffffffffffffffffffff82169050919050565b6000819050919050565b6000620003598262000342565b9050919050565b60006200036d8262000342565b9050919050565b6200037f816200030e565b81146200038b57600080fd5b50565b620003998162000342565b8114620003a557600080fd5b50565b610b2780620003b86000396000f3fe608060405234801561001057600080fd5b50600436106100885760003560e01c8063a0f44c921161005b578063a0f44c9214610103578063a3867d9114610121578063a3a8e3c51461013d578063f2fde38b1461015957610088565b8063365b98b21461008d578063715018a6146100bd5780637b5d2534146100c75780638da5cb5b146100e5575b600080fd5b6100a760048036038101906100a29190610752565b610175565b6040516100b49190610865565b60405180910390f35b6100c561018d565b005b6100cf610215565b6040516100dc9190610880565b60405180910390f35b6100ed61023b565b6040516100fa919061084a565b60405180910390f35b61010b610264565b60405161011891906108db565b60405180910390f35b61013b6004803603810190610136919061077b565b61026a565b005b610157600480360381019061015291906106ee565b6103cc565b005b610173600480360381019061016e91906106c5565b6104a4565b005b60036020528060005260406000206000915090505481565b61019561059c565b73ffffffffffffffffffffffffffffffffffffffff166101b361023b565b73ffffffffffffffffffffffffffffffffffffffff1614610209576040517f08c379a0000000000000000000000000000000000000000000000000000000008152600401610200906108bb565b60405180910390fd5b61021360006105a4565b565b600160009054906101000a900473ffffffffffffffffffffffffffffffffffffffff1681565b60008060009054906101000a900473ffffffffffffffffffffffffffffffffffffffff16905090565b60025481565b61027261059c565b73ffffffffffffffffffffffffffffffffffffffff1661029061023b565b73ffffffffffffffffffffffffffffffffffffffff16146102e6576040517f08c379a00000000000000000000000000000000000000000000000000000000081526004016102dd906108bb565b60405180910390fd5b600160009054906101000a900473ffffffffffffffffffffffffffffffffffffffff1673ffffffffffffffffffffffffffffffffffffffff16631783efc3600254846040518363ffffffff1660e01b815260040161034592919061091f565b600060405180830381600087803b15801561035f57600080fd5b505af1158015610373573d6000803e3d6000fd5b505050508060036000848152602001908152602001600020819055507fa50a3b4d29437818306d1859dff6fb2b1884a4f487bd1d91a8cc026ac4c9453782826040516103c09291906108f6565b60405180910390a15050565b600160009054906101000a900473ffffffffffffffffffffffffffffffffffffffff1673ffffffffffffffffffffffffffffffffffffffff16638b69310a600254858786600254876040518763ffffffff1660e01b815260040161043596959493929190610948565b600060405180830381600087803b15801561044f57600080fd5b505af1158015610463573d6000803e3d6000fd5b505050507fdca4fe235351d51f8e3444599c9a1afc6d12397dcdc4fd5df11bb6cfe0eb5a77846040516104969190610865565b60405180910390a150505050565b6104ac61059c565b73ffffffffffffffffffffffffffffffffffffffff166104ca61023b565b73ffffffffffffffffffffffffffffffffffffffff1614610520576040517f08c379a0000000000000000000000000000000000000000000000000000000008152600401610517906108bb565b60405180910390fd5b600073ffffffffffffffffffffffffffffffffffffffff168173ffffffffffffffffffffffffffffffffffffffff161415610590576040517f08c379a00000000000000000000000000000000000000000000000000000000081526004016105879061089b565b60405180910390fd5b610599816105a4565b50565b600033905090565b60008060009054906101000a900473ffffffffffffffffffffffffffffffffffffffff169050816000806101000a81548173ffffffffffffffffffffffffffffffffffffffff021916908373ffffffffffffffffffffffffffffffffffffffff1602179055508173ffffffffffffffffffffffffffffffffffffffff168173ffffffffffffffffffffffffffffffffffffffff167f8be0079c531659141344cd1fd0a4f28419497f9722a3daafe3b4186f6b6457e060405160405180910390a35050565b60008135905061067781610aac565b92915050565b60008190508260206008028201111561069557600080fd5b92915050565b6000813590506106aa81610ac3565b92915050565b6000813590506106bf81610ada565b92915050565b6000602082840312156106d757600080fd5b60006106e584828501610668565b91505092915050565b600080600080610160858703121561070557600080fd5b60006107138782880161069b565b9450506020610724878288016106b0565b9350506040610735878288016106b0565b92505060606107468782880161067d565b91505092959194509250565b60006020828403121561076457600080fd5b6000610772848285016106b0565b91505092915050565b6000806040838503121561078e57600080fd5b600061079c858286016106b0565b92505060206107ad8582860161069b565b9150509250929050565b6107c0816109bb565b82525050565b6107d36101008383610a25565b5050565b6107e0816109cd565b82525050565b6107ef81610a01565b82525050565b60006108026026836109aa565b915061080d82610a34565b604082019050919050565b60006108256020836109aa565b915061083082610a83565b602082019050919050565b610844816109f7565b82525050565b600060208201905061085f60008301846107b7565b92915050565b600060208201905061087a60008301846107d7565b92915050565b600060208201905061089560008301846107e6565b92915050565b600060208201905081810360008301526108b4816107f5565b9050919050565b600060208201905081810360008301526108d481610818565b9050919050565b60006020820190506108f0600083018461083b565b92915050565b600060408201905061090b600083018561083b565b61091860208301846107d7565b9392505050565b6000604082019050610934600083018561083b565b610941602083018461083b565b9392505050565b60006101a08201905061095e600083018961083b565b61096b602083018861083b565b61097860408301876107d7565b610985606083018661083b565b610992608083018561083b565b61099f60a08301846107c6565b979650505050505050565b600082825260208201905092915050565b60006109c6826109d7565b9050919050565b6000819050919050565b600073ffffffffffffffffffffffffffffffffffffffff82169050919050565b6000819050919050565b6000610a0c82610a13565b9050919050565b6000610a1e826109d7565b9050919050565b82818337600083830152505050565b7f4f776e61626c653a206e6577206f776e657220697320746865207a65726f206160008201527f6464726573730000000000000000000000000000000000000000000000000000602082015250565b7f4f776e61626c653a2063616c6c6572206973206e6f7420746865206f776e6572600082015250565b610ab5816109bb565b8114610ac057600080fd5b50565b610acc816109cd565b8114610ad757600080fd5b50565b610ae3816109f7565b8114610aee57600080fd5b5056fea26469706673582212205cdcaab292a8cf8b866cb06b5358bf96ecc81718a53ce8c6f3b67624aa5e250364736f6c63430008040033",
  "linkReferences": {},
  "deployedLinkReferences": {}
}