{
  "_format": "hh-sol-artifact-1",
  "contractName": "MenshenID",
  "sourceName": "contracts/Menshen.sol",
  "abi": [
    {
      "inputs": [
        {
          "internalType": "address",
          "name": "semaphoreAddress",
          "type": "address"
        },
        {
          "internalType": "uint256",
          "name": "_groupId",
          "type": "uint256"
        }
      ],
      "stateMutability": "nonpayable",
      "type": "constructor"
    },
    {
      "anonymous": false,
      "inputs": [
        {
          "indexed": true,
          "internalType": "address",
          "name": "owner",
          "type": "address"
        },
        {
          "indexed": true,
          "internalType": "address",
          "name": "approved",
          "type": "address"
        },
        {
          "indexed": true,
          "internalType": "uint256",
          "name": "tokenId",
          "type": "uint256"
        }
      ],
      "name": "Approval",
      "type": "event"
    },
    {
      "anonymous": false,
      "inputs": [
        {
          "indexed": true,
          "internalType": "address",
          "name": "owner",
          "type": "address"
        },
        {
          "indexed": true,
          "internalType": "address",
          "name": "operator",
          "type": "address"
        },
        {
          "indexed": false,
          "internalType": "bool",
          "name": "approved",
          "type": "bool"
        }
      ],
      "name": "ApprovalForAll",
      "type": "event"
    },
    {
      "anonymous": false,
      "inputs": [
        {
          "indexed": true,
          "internalType": "address",
          "name": "from",
          "type": "address"
        },
        {
          "indexed": true,
          "internalType": "address",
          "name": "to",
          "type": "address"
        },
        {
          "indexed": true,
          "internalType": "uint256",
          "name": "tokenId",
          "type": "uint256"
        }
      ],
      "name": "Transfer",
      "type": "event"
    },
    {
      "inputs": [
        {
          "internalType": "address",
          "name": "to",
          "type": "address"
        },
        {
          "internalType": "uint256",
          "name": "tokenId",
          "type": "uint256"
        }
      ],
      "name": "approve",
      "outputs": [],
      "stateMutability": "nonpayable",
      "type": "function"
    },
    {
      "inputs": [
        {
          "internalType": "address",
          "name": "owner",
          "type": "address"
        }
      ],
      "name": "balanceOf",
      "outputs": [
        {
          "internalType": "uint256",
          "name": "",
          "type": "uint256"
        }
      ],
      "stateMutability": "view",
      "type": "function"
    },
    {
      "inputs": [
        {
          "internalType": "uint256",
          "name": "tokenId",
          "type": "uint256"
        }
      ],
      "name": "getApproved",
      "outputs": [
        {
          "internalType": "address",
          "name": "",
          "type": "address"
        }
      ],
      "stateMutability": "view",
      "type": "function"
    },
    {
      "inputs": [],
      "name": "groupId",
      "outputs": [
        {
          "internalType": "uint256",
          "name": "",
          "type": "uint256"
        }
      ],
      "stateMutability": "view",
      "type": "function"
    },
    {
      "inputs": [
        {
          "internalType": "address",
          "name": "owner",
          "type": "address"
        },
        {
          "internalType": "address",
          "name": "operator",
          "type": "address"
        }
      ],
      "name": "isApprovedForAll",
      "outputs": [
        {
          "internalType": "bool",
          "name": "",
          "type": "bool"
        }
      ],
      "stateMutability": "view",
      "type": "function"
    },
    {
      "inputs": [
        {
          "internalType": "bytes32",
          "name": "greeting",
          "type": "bytes32"
        },
        {
          "internalType": "uint256",
          "name": "merkleTreeRoot",
          "type": "uint256"
        },
        {
          "internalType": "uint256",
          "name": "nullifierHash",
          "type": "uint256"
        },
        {
          "internalType": "uint256[8]",
          "name": "proof",
          "type": "uint256[8]"
        }
      ],
      "name": "mintNFT",
      "outputs": [
        {
          "internalType": "uint256",
          "name": "",
          "type": "uint256"
        }
      ],
      "stateMutability": "nonpayable",
      "type": "function"
    },
    {
      "inputs": [],
      "name": "name",
      "outputs": [
        {
          "internalType": "string",
          "name": "",
          "type": "string"
        }
      ],
      "stateMutability": "view",
      "type": "function"
    },
    {
      "inputs": [
        {
          "internalType": "uint256",
          "name": "tokenId",
          "type": "uint256"
        }
      ],
      "name": "ownerOf",
      "outputs": [
        {
          "internalType": "address",
          "name": "",
          "type": "address"
        }
      ],
      "stateMutability": "view",
      "type": "function"
    },
    {
      "inputs": [
        {
          "internalType": "address",
          "name": "from",
          "type": "address"
        },
        {
          "internalType": "address",
          "name": "to",
          "type": "address"
        },
        {
          "internalType": "uint256",
          "name": "tokenId",
          "type": "uint256"
        }
      ],
      "name": "safeTransferFrom",
      "outputs": [],
      "stateMutability": "nonpayable",
      "type": "function"
    },
    {
      "inputs": [
        {
          "internalType": "address",
          "name": "from",
          "type": "address"
        },
        {
          "internalType": "address",
          "name": "to",
          "type": "address"
        },
        {
          "internalType": "uint256",
          "name": "tokenId",
          "type": "uint256"
        },
        {
          "internalType": "bytes",
          "name": "_data",
          "type": "bytes"
        }
      ],
      "name": "safeTransferFrom",
      "outputs": [],
      "stateMutability": "nonpayable",
      "type": "function"
    },
    {
      "inputs": [],
      "name": "semaphore",
      "outputs": [
        {
          "internalType": "contract ISemaphore",
          "name": "",
          "type": "address"
        }
      ],
      "stateMutability": "view",
      "type": "function"
    },
    {
      "inputs": [
        {
          "internalType": "address",
          "name": "operator",
          "type": "address"
        },
        {
          "internalType": "bool",
          "name": "approved",
          "type": "bool"
        }
      ],
      "name": "setApprovalForAll",
      "outputs": [],
      "stateMutability": "nonpayable",
      "type": "function"
    },
    {
      "inputs": [
        {
          "internalType": "bytes4",
          "name": "interfaceId",
          "type": "bytes4"
        }
      ],
      "name": "supportsInterface",
      "outputs": [
        {
          "internalType": "bool",
          "name": "",
          "type": "bool"
        }
      ],
      "stateMutability": "view",
      "type": "function"
    },
    {
      "inputs": [],
      "name": "symbol",
      "outputs": [
        {
          "internalType": "string",
          "name": "",
          "type": "string"
        }
      ],
      "stateMutability": "view",
      "type": "function"
    },
    {
      "inputs": [
        {
          "internalType": "uint256",
          "name": "tokenId",
          "type": "uint256"
        }
      ],
      "name": "tokenURI",
      "outputs": [
        {
          "internalType": "string",
          "name": "",
          "type": "string"
        }
      ],
      "stateMutability": "view",
      "type": "function"
    },
    {
      "inputs": [
        {
          "internalType": "address",
          "name": "from",
          "type": "address"
        },
        {
          "internalType": "address",
          "name": "to",
          "type": "address"
        },
        {
          "internalType": "uint256",
          "name": "tokenId",
          "type": "uint256"
        }
      ],
      "name": "transferFrom",
      "outputs": [],
      "stateMutability": "nonpayable",
      "type": "function"
    }
  ],
  "bytecode": "0x60806040523480156200001157600080fd5b5060405162002d3338038062002d33833981810160405281019062000037919062000205565b6040518060400160405280601681526020017f4d656e7368656e20537962696c2050726f6f66204944000000000000000000008152506040518060400160405280600481526020017f53504944000000000000000000000000000000000000000000000000000000008152508160009080519060200190620000bb92919062000127565b508060019080519060200190620000d492919062000127565b50505081600760006101000a81548173ffffffffffffffffffffffffffffffffffffffff021916908373ffffffffffffffffffffffffffffffffffffffff1602179055508060088190555050506200031d565b828054620001359062000284565b90600052602060002090601f016020900481019282620001595760008555620001a5565b82601f106200017457805160ff1916838001178555620001a5565b82800160010185558215620001a5579182015b82811115620001a457825182559160200191906001019062000187565b5b509050620001b49190620001b8565b5090565b5b80821115620001d3576000816000905550600101620001b9565b5090565b600081519050620001e881620002e9565b92915050565b600081519050620001ff8162000303565b92915050565b600080604083850312156200021957600080fd5b60006200022985828601620001d7565b92505060206200023c85828601620001ee565b9150509250929050565b600062000253826200025a565b9050919050565b600073ffffffffffffffffffffffffffffffffffffffff82169050919050565b6000819050919050565b600060028204905060018216806200029d57607f821691505b60208210811415620002b457620002b3620002ba565b5b50919050565b7f4e487b7100000000000000000000000000000000000000000000000000000000600052602260045260246000fd5b620002f48162000246565b81146200030057600080fd5b50565b6200030e816200027a565b81146200031a57600080fd5b50565b612a06806200032d6000396000f3fe608060405234801561001057600080fd5b50600436106101005760003560e01c806370a0823111610097578063a22cb46511610066578063a22cb465146102c1578063b88d4fde146102dd578063c87b56dd146102f9578063e985e9c51461032957610100565b806370a08231146102375780637b5d25341461026757806395d89b4114610285578063a0f44c92146102a357610100565b806323b872dd116100d357806323b872dd1461019f57806342842e0e146101bb5780636352211e146101d75780636766d02b1461020757610100565b806301ffc9a71461010557806306fdde0314610135578063081812fc14610153578063095ea7b314610183575b600080fd5b61011f600480360381019061011a9190611b17565b610359565b60405161012c9190611f06565b60405180910390f35b61013d61043b565b60405161014a9190611f3c565b60405180910390f35b61016d60048036038101906101689190611b69565b6104cd565b60405161017a9190611e9f565b60405180910390f35b61019d60048036038101906101989190611a77565b610552565b005b6101b960048036038101906101b49190611971565b61066a565b005b6101d560048036038101906101d09190611971565b6106ca565b005b6101f160048036038101906101ec9190611b69565b6106ea565b6040516101fe9190611e9f565b60405180910390f35b610221600480360381019061021c9190611ab3565b61079c565b60405161022e919061211e565b60405180910390f35b610251600480360381019061024c919061190c565b610867565b60405161025e919061211e565b60405180910390f35b61026f61091f565b60405161027c9190611f21565b60405180910390f35b61028d610945565b60405161029a9190611f3c565b60405180910390f35b6102ab6109d7565b6040516102b8919061211e565b60405180910390f35b6102db60048036038101906102d69190611a3b565b6109dd565b005b6102f760048036038101906102f291906119c0565b6109f3565b005b610313600480360381019061030e9190611b69565b610a55565b6040516103209190611f3c565b60405180910390f35b610343600480360381019061033e9190611935565b610afc565b6040516103509190611f06565b60405180910390f35b60007f80ac58cd000000000000000000000000000000000000000000000000000000007bffffffffffffffffffffffffffffffffffffffffffffffffffffffff1916827bffffffffffffffffffffffffffffffffffffffffffffffffffffffff1916148061042457507f5b5e139f000000000000000000000000000000000000000000000000000000007bffffffffffffffffffffffffffffffffffffffffffffffffffffffff1916827bffffffffffffffffffffffffffffffffffffffffffffffffffffffff1916145b80610434575061043382610b90565b5b9050919050565b60606000805461044a906123d3565b80601f0160208091040260200160405190810160405280929190818152602001828054610476906123d3565b80156104c35780601f10610498576101008083540402835291602001916104c3565b820191906000526020600020905b8154815290600101906020018083116104a657829003601f168201915b5050505050905090565b60006104d882610bfa565b610517576040517f08c379a000000000000000000000000000000000000000000000000000000000815260040161050e9061207e565b60405180910390fd5b6004600083815260200190815260200160002060009054906101000a900473ffffffffffffffffffffffffffffffffffffffff169050919050565b600061055d826106ea565b90508073ffffffffffffffffffffffffffffffffffffffff168373ffffffffffffffffffffffffffffffffffffffff1614156105ce576040517f08c379a00000000000000000000000000000000000000000000000000000000081526004016105c5906120de565b60405180910390fd5b8073ffffffffffffffffffffffffffffffffffffffff166105ed610c66565b73ffffffffffffffffffffffffffffffffffffffff16148061061c575061061b81610616610c66565b610afc565b5b61065b576040517f08c379a000000000000000000000000000000000000000000000000000000000815260040161065290611ffe565b60405180910390fd5b6106658383610c6e565b505050565b61067b610675610c66565b82610d27565b6106ba576040517f08c379a00000000000000000000000000000000000000000000000000000000081526004016106b1906120fe565b60405180910390fd5b6106c5838383610e05565b505050565b6106e5838383604051806020016040528060008152506109f3565b505050565b6000806002600084815260200190815260200160002060009054906101000a900473ffffffffffffffffffffffffffffffffffffffff169050600073ffffffffffffffffffffffffffffffffffffffff168173ffffffffffffffffffffffffffffffffffffffff161415610793576040517f08c379a000000000000000000000000000000000000000000000000000000000815260040161078a9061203e565b60405180910390fd5b80915050919050565b6000600760009054906101000a900473ffffffffffffffffffffffffffffffffffffffff1673ffffffffffffffffffffffffffffffffffffffff16638b69310a600854868887600854886040518763ffffffff1660e01b815260040161080796959493929190612139565b600060405180830381600087803b15801561082157600080fd5b505af1158015610835573d6000803e3d6000fd5b505050506108436006611061565b600061084f6006611077565b905061085b3382611085565b80915050949350505050565b60008073ffffffffffffffffffffffffffffffffffffffff168273ffffffffffffffffffffffffffffffffffffffff1614156108d8576040517f08c379a00000000000000000000000000000000000000000000000000000000081526004016108cf9061201e565b60405180910390fd5b600360008373ffffffffffffffffffffffffffffffffffffffff1673ffffffffffffffffffffffffffffffffffffffff168152602001908152602001600020549050919050565b600760009054906101000a900473ffffffffffffffffffffffffffffffffffffffff1681565b606060018054610954906123d3565b80601f0160208091040260200160405190810160405280929190818152602001828054610980906123d3565b80156109cd5780601f106109a2576101008083540402835291602001916109cd565b820191906000526020600020905b8154815290600101906020018083116109b057829003601f168201915b5050505050905090565b60085481565b6109ef6109e8610c66565b83836110a3565b5050565b610a046109fe610c66565b83610d27565b610a43576040517f08c379a0000000000000000000000000000000000000000000000000000000008152600401610a3a906120fe565b60405180910390fd5b610a4f84848484611210565b50505050565b6060610a6082610bfa565b610a9f576040517f08c379a0000000000000000000000000000000000000000000000000000000008152600401610a96906120be565b60405180910390fd5b6000610aa961126c565b90506000815111610ac95760405180602001604052806000815250610af4565b80610ad384611283565b604051602001610ae4929190611e7b565b6040516020818303038152906040525b915050919050565b6000600560008473ffffffffffffffffffffffffffffffffffffffff1673ffffffffffffffffffffffffffffffffffffffff16815260200190815260200160002060008373ffffffffffffffffffffffffffffffffffffffff1673ffffffffffffffffffffffffffffffffffffffff16815260200190815260200160002060009054906101000a900460ff16905092915050565b60007f01ffc9a7000000000000000000000000000000000000000000000000000000007bffffffffffffffffffffffffffffffffffffffffffffffffffffffff1916827bffffffffffffffffffffffffffffffffffffffffffffffffffffffff1916149050919050565b60008073ffffffffffffffffffffffffffffffffffffffff166002600084815260200190815260200160002060009054906101000a900473ffffffffffffffffffffffffffffffffffffffff1673ffffffffffffffffffffffffffffffffffffffff1614159050919050565b600033905090565b816004600083815260200190815260200160002060006101000a81548173ffffffffffffffffffffffffffffffffffffffff021916908373ffffffffffffffffffffffffffffffffffffffff160217905550808273ffffffffffffffffffffffffffffffffffffffff16610ce1836106ea565b73ffffffffffffffffffffffffffffffffffffffff167f8c5be1e5ebec7d5bd14f71427d1e84f3dd0314c0f7b2291e5b200ac8c7c3b92560405160405180910390a45050565b6000610d3282610bfa565b610d71576040517f08c379a0000000000000000000000000000000000000000000000000000000008152600401610d6890611fde565b60405180910390fd5b6000610d7c836106ea565b90508073ffffffffffffffffffffffffffffffffffffffff168473ffffffffffffffffffffffffffffffffffffffff161480610deb57508373ffffffffffffffffffffffffffffffffffffffff16610dd3846104cd565b73ffffffffffffffffffffffffffffffffffffffff16145b80610dfc5750610dfb8185610afc565b5b91505092915050565b8273ffffffffffffffffffffffffffffffffffffffff16610e25826106ea565b73ffffffffffffffffffffffffffffffffffffffff1614610e7b576040517f08c379a0000000000000000000000000000000000000000000000000000000008152600401610e729061209e565b60405180910390fd5b600073ffffffffffffffffffffffffffffffffffffffff168273ffffffffffffffffffffffffffffffffffffffff161415610eeb576040517f08c379a0000000000000000000000000000000000000000000000000000000008152600401610ee290611f9e565b60405180910390fd5b610ef6838383611430565b610f01600082610c6e565b6001600360008573ffffffffffffffffffffffffffffffffffffffff1673ffffffffffffffffffffffffffffffffffffffff1681526020019081526020016000206000828254610f5191906122bb565b925050819055506001600360008473ffffffffffffffffffffffffffffffffffffffff1673ffffffffffffffffffffffffffffffffffffffff1681526020019081526020016000206000828254610fa89190612234565b92505081905550816002600083815260200190815260200160002060006101000a81548173ffffffffffffffffffffffffffffffffffffffff021916908373ffffffffffffffffffffffffffffffffffffffff160217905550808273ffffffffffffffffffffffffffffffffffffffff168473ffffffffffffffffffffffffffffffffffffffff167fddf252ad1be2c89b69c2b068fc378daa952ba7f163c4a11628f55a4df523b3ef60405160405180910390a4505050565b6001816000016000828254019250508190555050565b600081600001549050919050565b61109f828260405180602001604052806000815250611435565b5050565b8173ffffffffffffffffffffffffffffffffffffffff168373ffffffffffffffffffffffffffffffffffffffff161415611112576040517f08c379a000000000000000000000000000000000000000000000000000000000815260040161110990611fbe565b60405180910390fd5b80600560008573ffffffffffffffffffffffffffffffffffffffff1673ffffffffffffffffffffffffffffffffffffffff16815260200190815260200160002060008473ffffffffffffffffffffffffffffffffffffffff1673ffffffffffffffffffffffffffffffffffffffff16815260200190815260200160002060006101000a81548160ff0219169083151502179055508173ffffffffffffffffffffffffffffffffffffffff168373ffffffffffffffffffffffffffffffffffffffff167f17307eab39ab6107e8899845ad3d59bd9653f200f220920489ca2b5937696c31836040516112039190611f06565b60405180910390a3505050565b61121b848484610e05565b61122784848484611490565b611266576040517f08c379a000000000000000000000000000000000000000000000000000000000815260040161125d90611f5e565b60405180910390fd5b50505050565b606060405180602001604052806000815250905090565b606060008214156112cb576040518060400160405280600181526020017f3000000000000000000000000000000000000000000000000000000000000000815250905061142b565b600082905060005b600082146112fd5780806112e690612436565b915050600a826112f6919061228a565b91506112d3565b60008167ffffffffffffffff81111561133f577f4e487b7100000000000000000000000000000000000000000000000000000000600052604160045260246000fd5b6040519080825280601f01601f1916602001820160405280156113715781602001600182028036833780820191505090505b5090505b600085146114245760018261138a91906122bb565b9150600a85611399919061247f565b60306113a59190612234565b60f81b8183815181106113e1577f4e487b7100000000000000000000000000000000000000000000000000000000600052603260045260246000fd5b60200101907effffffffffffffffffffffffffffffffffffffffffffffffffffffffffffff1916908160001a905350600a8561141d919061228a565b9450611375565b8093505050505b919050565b505050565b61143f8383611627565b61144c6000848484611490565b61148b576040517f08c379a000000000000000000000000000000000000000000000000000000000815260040161148290611f5e565b60405180910390fd5b505050565b60006114b18473ffffffffffffffffffffffffffffffffffffffff166117f5565b1561161a578373ffffffffffffffffffffffffffffffffffffffff1663150b7a026114da610c66565b8786866040518563ffffffff1660e01b81526004016114fc9493929190611eba565b602060405180830381600087803b15801561151657600080fd5b505af192505050801561154757506040513d601f19601f820116820180604052508101906115449190611b40565b60015b6115ca573d8060008114611577576040519150601f19603f3d011682016040523d82523d6000602084013e61157c565b606091505b506000815114156115c2576040517f08c379a00000000000000000000000000000000000000000000000000000000081526004016115b990611f5e565b60405180910390fd5b805181602001fd5b63150b7a0260e01b7bffffffffffffffffffffffffffffffffffffffffffffffffffffffff1916817bffffffffffffffffffffffffffffffffffffffffffffffffffffffff19161491505061161f565b600190505b949350505050565b600073ffffffffffffffffffffffffffffffffffffffff168273ffffffffffffffffffffffffffffffffffffffff161415611697576040517f08c379a000000000000000000000000000000000000000000000000000000000815260040161168e9061205e565b60405180910390fd5b6116a081610bfa565b156116e0576040517f08c379a00000000000000000000000000000000000000000000000000000000081526004016116d790611f7e565b60405180910390fd5b6116ec60008383611430565b6001600360008473ffffffffffffffffffffffffffffffffffffffff1673ffffffffffffffffffffffffffffffffffffffff168152602001908152602001600020600082825461173c9190612234565b92505081905550816002600083815260200190815260200160002060006101000a81548173ffffffffffffffffffffffffffffffffffffffff021916908373ffffffffffffffffffffffffffffffffffffffff160217905550808273ffffffffffffffffffffffffffffffffffffffff16600073ffffffffffffffffffffffffffffffffffffffff167fddf252ad1be2c89b69c2b068fc378daa952ba7f163c4a11628f55a4df523b3ef60405160405180910390a45050565b600080823b905060008111915050919050565b600061181b611816846121c0565b61219b565b90508281526020810184848401111561183357600080fd5b61183e848285612391565b509392505050565b6000813590506118558161295d565b92915050565b60008190508260206008028201111561187357600080fd5b92915050565b60008135905061188881612974565b92915050565b60008135905061189d8161298b565b92915050565b6000813590506118b2816129a2565b92915050565b6000815190506118c7816129a2565b92915050565b600082601f8301126118de57600080fd5b81356118ee848260208601611808565b91505092915050565b600081359050611906816129b9565b92915050565b60006020828403121561191e57600080fd5b600061192c84828501611846565b91505092915050565b6000806040838503121561194857600080fd5b600061195685828601611846565b925050602061196785828601611846565b9150509250929050565b60008060006060848603121561198657600080fd5b600061199486828701611846565b93505060206119a586828701611846565b92505060406119b6868287016118f7565b9150509250925092565b600080600080608085870312156119d657600080fd5b60006119e487828801611846565b94505060206119f587828801611846565b9350506040611a06878288016118f7565b925050606085013567ffffffffffffffff811115611a2357600080fd5b611a2f878288016118cd565b91505092959194509250565b60008060408385031215611a4e57600080fd5b6000611a5c85828601611846565b9250506020611a6d85828601611879565b9150509250929050565b60008060408385031215611a8a57600080fd5b6000611a9885828601611846565b9250506020611aa9858286016118f7565b9150509250929050565b6000806000806101608587031215611aca57600080fd5b6000611ad88782880161188e565b9450506020611ae9878288016118f7565b9350506040611afa878288016118f7565b9250506060611b0b8782880161185b565b91505092959194509250565b600060208284031215611b2957600080fd5b6000611b37848285016118a3565b91505092915050565b600060208284031215611b5257600080fd5b6000611b60848285016118b8565b91505092915050565b600060208284031215611b7b57600080fd5b6000611b89848285016118f7565b91505092915050565b611b9b816122ef565b82525050565b611bae6101008383612391565b5050565b611bbb81612301565b82525050565b611bca8161230d565b82525050565b6000611bdb826121f1565b611be58185612207565b9350611bf58185602086016123a0565b611bfe8161256c565b840191505092915050565b611c128161236d565b82525050565b6000611c23826121fc565b611c2d8185612218565b9350611c3d8185602086016123a0565b611c468161256c565b840191505092915050565b6000611c5c826121fc565b611c668185612229565b9350611c768185602086016123a0565b80840191505092915050565b6000611c8f603283612218565b9150611c9a8261257d565b604082019050919050565b6000611cb2601c83612218565b9150611cbd826125cc565b602082019050919050565b6000611cd5602483612218565b9150611ce0826125f5565b604082019050919050565b6000611cf8601983612218565b9150611d0382612644565b602082019050919050565b6000611d1b602c83612218565b9150611d268261266d565b604082019050919050565b6000611d3e603883612218565b9150611d49826126bc565b604082019050919050565b6000611d61602a83612218565b9150611d6c8261270b565b604082019050919050565b6000611d84602983612218565b9150611d8f8261275a565b604082019050919050565b6000611da7602083612218565b9150611db2826127a9565b602082019050919050565b6000611dca602c83612218565b9150611dd5826127d2565b604082019050919050565b6000611ded602983612218565b9150611df882612821565b604082019050919050565b6000611e10602f83612218565b9150611e1b82612870565b604082019050919050565b6000611e33602183612218565b9150611e3e826128bf565b604082019050919050565b6000611e56603183612218565b9150611e618261290e565b604082019050919050565b611e7581612363565b82525050565b6000611e878285611c51565b9150611e938284611c51565b91508190509392505050565b6000602082019050611eb46000830184611b92565b92915050565b6000608082019050611ecf6000830187611b92565b611edc6020830186611b92565b611ee96040830185611e6c565b8181036060830152611efb8184611bd0565b905095945050505050565b6000602082019050611f1b6000830184611bb2565b92915050565b6000602082019050611f366000830184611c09565b92915050565b60006020820190508181036000830152611f568184611c18565b905092915050565b60006020820190508181036000830152611f7781611c82565b9050919050565b60006020820190508181036000830152611f9781611ca5565b9050919050565b60006020820190508181036000830152611fb781611cc8565b9050919050565b60006020820190508181036000830152611fd781611ceb565b9050919050565b60006020820190508181036000830152611ff781611d0e565b9050919050565b6000602082019050818103600083015261201781611d31565b9050919050565b6000602082019050818103600083015261203781611d54565b9050919050565b6000602082019050818103600083015261205781611d77565b9050919050565b6000602082019050818103600083015261207781611d9a565b9050919050565b6000602082019050818103600083015261209781611dbd565b9050919050565b600060208201905081810360008301526120b781611de0565b9050919050565b600060208201905081810360008301526120d781611e03565b9050919050565b600060208201905081810360008301526120f781611e26565b9050919050565b6000602082019050818103600083015261211781611e49565b9050919050565b60006020820190506121336000830184611e6c565b92915050565b60006101a08201905061214f6000830189611e6c565b61215c6020830188611e6c565b6121696040830187611bc1565b6121766060830186611e6c565b6121836080830185611e6c565b61219060a0830184611ba1565b979650505050505050565b60006121a56121b6565b90506121b18282612405565b919050565b6000604051905090565b600067ffffffffffffffff8211156121db576121da61253d565b5b6121e48261256c565b9050602081019050919050565b600081519050919050565b600081519050919050565b600082825260208201905092915050565b600082825260208201905092915050565b600081905092915050565b600061223f82612363565b915061224a83612363565b9250827fffffffffffffffffffffffffffffffffffffffffffffffffffffffffffffffff0382111561227f5761227e6124b0565b5b828201905092915050565b600061229582612363565b91506122a083612363565b9250826122b0576122af6124df565b5b828204905092915050565b60006122c682612363565b91506122d183612363565b9250828210156122e4576122e36124b0565b5b828203905092915050565b60006122fa82612343565b9050919050565b60008115159050919050565b6000819050919050565b60007fffffffff0000000000000000000000000000000000000000000000000000000082169050919050565b600073ffffffffffffffffffffffffffffffffffffffff82169050919050565b6000819050919050565b60006123788261237f565b9050919050565b600061238a82612343565b9050919050565b82818337600083830152505050565b60005b838110156123be5780820151818401526020810190506123a3565b838111156123cd576000848401525b50505050565b600060028204905060018216806123eb57607f821691505b602082108114156123ff576123fe61250e565b5b50919050565b61240e8261256c565b810181811067ffffffffffffffff8211171561242d5761242c61253d565b5b80604052505050565b600061244182612363565b91507fffffffffffffffffffffffffffffffffffffffffffffffffffffffffffffffff821415612474576124736124b0565b5b600182019050919050565b600061248a82612363565b915061249583612363565b9250826124a5576124a46124df565b5b828206905092915050565b7f4e487b7100000000000000000000000000000000000000000000000000000000600052601160045260246000fd5b7f4e487b7100000000000000000000000000000000000000000000000000000000600052601260045260246000fd5b7f4e487b7100000000000000000000000000000000000000000000000000000000600052602260045260246000fd5b7f4e487b7100000000000000000000000000000000000000000000000000000000600052604160045260246000fd5b6000601f19601f8301169050919050565b7f4552433732313a207472616e7366657220746f206e6f6e20455243373231526560008201527f63656976657220696d706c656d656e7465720000000000000000000000000000602082015250565b7f4552433732313a20746f6b656e20616c7265616479206d696e74656400000000600082015250565b7f4552433732313a207472616e7366657220746f20746865207a65726f2061646460008201527f7265737300000000000000000000000000000000000000000000000000000000602082015250565b7f4552433732313a20617070726f766520746f2063616c6c657200000000000000600082015250565b7f4552433732313a206f70657261746f7220717565727920666f72206e6f6e657860008201527f697374656e7420746f6b656e0000000000000000000000000000000000000000602082015250565b7f4552433732313a20617070726f76652063616c6c6572206973206e6f74206f7760008201527f6e6572206e6f7220617070726f76656420666f7220616c6c0000000000000000602082015250565b7f4552433732313a2062616c616e636520717565727920666f7220746865207a6560008201527f726f206164647265737300000000000000000000000000000000000000000000602082015250565b7f4552433732313a206f776e657220717565727920666f72206e6f6e657869737460008201527f656e7420746f6b656e0000000000000000000000000000000000000000000000602082015250565b7f4552433732313a206d696e7420746f20746865207a65726f2061646472657373600082015250565b7f4552433732313a20617070726f76656420717565727920666f72206e6f6e657860008201527f697374656e7420746f6b656e0000000000000000000000000000000000000000602082015250565b7f4552433732313a207472616e73666572206f6620746f6b656e2074686174206960008201527f73206e6f74206f776e0000000000000000000000000000000000000000000000602082015250565b7f4552433732314d657461646174613a2055524920717565727920666f72206e6f60008201527f6e6578697374656e7420746f6b656e0000000000000000000000000000000000602082015250565b7f4552433732313a20617070726f76616c20746f2063757272656e74206f776e6560008201527f7200000000000000000000000000000000000000000000000000000000000000602082015250565b7f4552433732313a207472616e736665722063616c6c6572206973206e6f74206f60008201527f776e6572206e6f7220617070726f766564000000000000000000000000000000602082015250565b612966816122ef565b811461297157600080fd5b50565b61297d81612301565b811461298857600080fd5b50565b6129948161230d565b811461299f57600080fd5b50565b6129ab81612317565b81146129b657600080fd5b50565b6129c281612363565b81146129cd57600080fd5b5056fea2646970667358221220e56cc5eb9b3ef27be9dbb66a93fc44174b206b0b02b9b3d75c17fb1dbd9843ac64736f6c63430008040033",
  "linkReferences": {},
  "deployedLinkReferences": {}
}